:020000041000EA
:1000000000B5324B212058609868022188439860DF
:10001000D860186158612E4B002199600221596106
:100020000121F02299502B49196001219960352056
:1000300000F044F80222904214D00621196600F024
:1000400034F8196E01211966002018661A6600F04E
:100050002CF8196E196E196E052000F02FF8012189
:100060000842F9D1002199601B49196000215960AB
:100070001A491B48016001219960EB211966A021F2
:10008000196600F012F800219960164914480160C1
:100090000121996001BC002800D000471248134993
:1000A000086003C880F30888084703B5996A0420EC
:1000B0000142FBD001200142F8D103BD02B5186610
:1000C0001866FFF7F2FF186E186E02BD00000240BE
:1000D000000000180000070000035F00212200005C
:1000E000F4000018222000A00001001008ED00E03C
:1000F00000000000000000000000000074B24E7A12
:1001000000200420F7010010C3010010C5010010F9
:10011000C1010010C1010010C1010010C101001097
:10012000C1010010C1010010C1010010C701001081
:10013000C1010010C1010010C9010010CB01001065
:10014000CD010010CD010010CD010010CD01001037
:10015000CD010010CD010010CD010010CD01001027
:10016000CD010010CD010010CD010010CD01001017
:10017000CD010010CD010010CD010010CD01001007
:10018000CD010010CD010010CD010010CD010010F7
:10019000CD010010CD010010CD010010CD010010E7
:1001A000CD010010CD010010CD010010CD010010D7
:1001B000CD010010CD010010CD010010CD010010C7
:1001C00000BE00BE00BE00BE00BE00BE00F04BF888
:1001D000103800BEF2EB8871B8000110E000011089
:1001E0003402001090A31AE700202149086006C8D5
:1001F00081F3088810471F48006800282FD10DA4FC
:100200000ECC002902D000F012F8F9E71A491B4A77
:10021000002000E001C19142FCD1194988471949E9
:1002200088471949884700BEFDE701C901C29A42C3
:10023000FBD37047E0000110C0000020940F0020A5
:10024000B40F01100000042000000420B40F0110BE
:1002500000100420001004200000000070470B482C
:1002600003F014FF0047EFF30580C0B270470000B1
:1002700008ED00E0000000D0980F0020B83D0020FD
:10028000B9290010150B00107529001057560000F1
:1002900006005250ABB36053D4F100100600525028
:1002A000861C0302E4F10010060052505422A29D65
:1002B000F0F1001005005250DE65F468B40F011033
:1002C000F8B5C0460448054B10B5834203D0044B33
:1002D000002B00D0984710BD940F0020940F0020F1
:1002E0000000000006480749091A8B10C90FC918F9
:1002F00010B5491003D0044B002B00D0984710BD17
:10030000940F0020940F00200000000010B5074C4F
:100310002378002B09D1FFF7D5FF054B002B02D026
:10032000044800E000BF0123237010BDA01000208E
:1003300000000000E8E00010054B10B5002B03D0D2
:100340000449054800E000BFFFF7CCFF10BDC046E0
:1003500000000000A4100020E8E00010F0B5C64640
:1003600000B5006800293AD0022938D0022900D10E
:100370006AE080BCB846F0BD514B524D5C5D8026B2
:100380007601B4469E5BB6B280273F01B84644442E
:1003900064001C196680002764461F535E5D0136A9
:1003A000012434405C555C5D444464001B195F804B
:1003B000434C454B0025E554414C80235B01E35AF7
:1003C0009BB2002B06D1FF331340402B02D03E4B93
:1003D0000125E5543A4C3C4BE35C002B25D0036FE0
:1003E0001B07C3D5364A394B0124D454026913057F
:1003F000E2D5334C80235B01E35A9BB2002BDBD068
:10040000314BE35C002BD3D12300802464011C5BBF
:10041000A4B22F4D5B5B9BB29C42ADD9284C80238C
:100420005B01E35A9BB26353A6E72300254C1D5D95
:10043000802676019C5BA7B20134A4B29C53D2B251
:10044000ED025B19DA55CAE71D4A204BD35C002B3D
:1004500000D18EE71C4BD35C002B29D113008022E6
:1004600052019A5A92B21A495B5A9BB29A4205D9E2
:10047000134A80235B01D35A9BB25352104B11494C
:100480005A5C80256D01585B80B280242401A4460B
:10049000624452009A18508000245C53585C01302A
:1004A000012202405A545A5C624452009B185C80FC
:1004B000034B002205495A5403495A5459E7C04690
:1004C000901600200910000007100000081000001E
:1004D0000A10000010B5042002F0A0F90321042046
:1004E00002F052F900220121042002F065F90520F2
:1004F00002F094F90321052002F046F900220121BF
:10050000052002F059F9054C0549200000F078FC5F
:10051000044A3C21200000F0AFFB10BDC0040020C5
:1005200040420F005D030010F0B583B0474A484BCE
:10053000D25CD2B2474B1B78DBB29A4277D04549A6
:100540000B78424A80200001844663445B00D31844
:100550005D88ADB20978C90289182A003E4804F0C6
:1005600065FD3E4B1B78002B0AD1384A384BD35CD3
:10057000DBB2384A137000200026012300242FE04C
:10058000374B1B689868334B1B78DBB22F4A8021AE
:100590004901515A334C125B019200912A003249B1
:1005A00007F054FEE1E7FF2812D122E02F490E5553
:1005B0000132D2B201348242F8D3002008E0671C35
:1005C0002A49D2220A55A21CCE5588540334002051
:1005D0000130C0B29D4201D91F4AD65C01339BB2A3
:1005E0009D420CD305D0012BDDD01B4AD25CB24218
:1005F000D9D00228E3D8D22EE1D00022DBE7174B76
:100600001B78002B15D10E2004F03CFE412004F095
:1006100039FEFF20204004F035FE200A04F032FEAF
:1006200022001249012008F0CBFA04F073FE03B057
:10063000F0BD0B4B1B6898680C4A137852780092F7
:1006400022000B4907F002FEDDE7C04690160020AD
:1006500009100000B23D00206C330020B43D0020A2
:10066000C80500200A100000E8E000106C2B0020F4
:10067000F8E0001070B588B0002423E0314B185D1D
:10068000314B195D314B1B5D0901194383001D1866
:10069000AA002F4DAC4662445160FF2111611B1826
:1006A0009A002C4B9C46624413681B041B0C80214F
:1006B00049010A431360284B185D042102F064F8D5
:1006C0000134E4B2032CD9D902AB00220292039286
:1006D000049210210391214A049205AA100070CBC4
:1006E00070C030230020984303000B430593802300
:1006F000DB000693002421E0194B195D144D8A009C
:100700005018830000205851AC4663449860D8606C
:100710000798019018610698586052189300059A3E
:100720005A51104B1D5D00220121280002F044F8AF
:100730000421280002F028F80134E4B2032CDBD9AC
:1007400008B070BD74E1001068E1001064E10010B1
:10075000000005400C0005406CE10010FFFF0000A8
:1007600060E100105CE1001010B5002405E0044BCE
:10077000185D02F053F80134E4B20A2CF7D910BD29
:1007800050E1001010B50F230340134AD45CC30698
:100790000ED50123A340420606D5D022120653618E
:1007A000D0221206536210BDD02212069361F7E7E1
:1007B000602108400200203A53425A41D2B26038C8
:1007C00043425841C1B2200001F0F6FF0123A3408B
:1007D000D02212069362E6E750E100100A4B1B5C40
:1007E0000A4A125C91409A00D2189200084B9C462B
:1007F00062440B041B0C11684B401B041B0C802132
:1008000049010A431360704774E1001070E1001061
:100810000C00054070B55C4B9D6A5C4B1B78002B4F
:1008200000D181E0594B1C69AC4205D82C1B584BB8
:100830009C4279D9002213E02C1B013CF7E7554B71
:10084000995C8B005B189B0053498C466344196884
:1008500001200840802149010B4318600132D2B2C7
:10086000032AECD9052002F03DFA4C4903F062FC62
:1008700060438609454B5B69B34205D2434B5E61D9
:100880009C61DD611A691A62002428E0FF203F4B59
:100890005B195B78002B07D16A003C4B9B18FF2249
:1008A000D200DA8011E00020002805D1374B5B1917
:1008B0005B78DBB2FF2B2ED0344B5A195278801A5A
:1008C0006A009B18DA881018D880304A6B00D31859
:1008D000DB88DB08DBB2521953700134E4B2032C1D
:1008E0001FD825002B4B1A5D93009B189B002A4AAA
:1008F00094466344986883B20004000CB042C5D2A9
:10090000002BD0D00302181A310003F013FCC0B240
:10091000FF28C9D1BBE76A001C4B9B180022DA8074
:10092000D3E71A4B00221A70184B1B78002B2AD1E0
:1009300000220BE0174B995C8B005B189B0016495B
:100940008C466344002199600132D2B2032AF1D966
:10095000002210E00F4B995C8B005B189B000E4946
:100960008C466344196801208843802149010B4368
:1009700018600132D2B2032AECD9034B9A6A034BB6
:100980001A6101221A7070BD00400540402B002002
:100990006C05000060E100100000054040420F00BF
:1009A00070B507F0FFFB0E4B02221A60002401E035
:1009B0000134E4B2042C11D80A4B1D5DFF2DF7D091
:1009C0001F21280001F0E0FE00220021280001F094
:1009D000F3FE0021280001F009FFE9E770BDC046E1
:1009E00000E0044048E1001010B582B0154B1B78C0
:1009F000002B0AD10E2004F045FC502004F042FCEC
:100A0000042004F03FFC002417E00F4B1B6898689B
:100A10000E494A78D2B28B78DBB2CC780979019151
:100A200000940B4907F012FCE4E7084B1B195878B7
:100A3000C0B204F027FC0134E4B2032CF5D902B0B3
:100A400010BDC046B43D0020C8050020402B00204A
:100A500004E10010F0B583B0264A13780133137017
:100A6000002219E01303244909684B40E021C90121
:100A70000B4022490B60224B042119601E4B1B685E
:100A8000DB05FBD51C4B5B689BB21E495000445AEA
:100A90001B1943520132D2B2042AE3D9154B1B78F9
:100AA000102B01D003B0F0BD124B00221A70164873
:100AB00004F072FC002416E0124E6700BD5B2D09A5
:100AC000280004F0C9F9114904F0BDF904F0E6F971
:100AD000009001912A0021000D4804F05DFC0023E4
:100AE000BB530134E4B2042CE6D90A2004F0CAFB5B
:100AF000D8E7C046AC3D002000C0044000D0044010
:100B000000E004404815002018E100103333533A48
:100B100020E10010F0B5D6464F4680B585B0504A6A
:100B2000504B0021D15204F043FC00214E4804F008
:100B300085FC4E4804F0FEFBFFF7CCFCFFF79AFD66
:100B4000FFF712FEFFF72CFF01F0BEFAFA22920027
:100B50000023801859410090019100239A4699463C
:100B60000025002400220023029203934CE0FFF7AB
:100B70003BFF0023994667E0002C0BD0012C05D1E8
:100B8000312819D032281DD190241BE0002419E00F
:100B9000002417E0022807D0642809D0442811D186
:100BA000334B00221A700DE0029603970124F3E7FD
:100BB0002F4B01221A70F1E78024E3E7C0B2FFF760
:100BC000E1FD0024002004F0F9FB431C0FD0802C31
:100BD000F4D0D1D9902C07D0912CD9D1C1B2280012
:100BE000FFF7FCFD0024EDE7C5B29124EAE7002CF5
:100BF0000AD0029A039BB61A9F41002F03D103D15A
:100C00001C4B9E4200D90024FFF78EFCFFF702FE2A
:100C100001F05AFA06000F00009A019B994204D88D
:100C20009F42F1D1009B9E42EED9FA22920000230E
:100C30000098019980185941009001914B46013369
:100C4000DBB29946072B92D8534601339BB29A46A2
:100C5000632BB7D9FFF7FEFE00239A46B2E7C046E2
:100C6000901600200A1000008405002030E10010DA
:100C7000B43D0020A0860100F8B505001A4B98424B
:100C800002D01A4B984220D1002A24D0174EAC1B18
:100C900063425C41164863001F19BF003D50C319F1
:100CA0005A600A000121280000F0D6F82B68114A8A
:100CB0001A631734B54214D00F49200000F01EFA11
:100CC0000121200000F0F0F9F8BD0C4B0C4A422144
:100CD0000C4801F053FE0C4B094A4321094801F02E
:100CE0004DFE0A49E9E7C046C0040020C8040020C0
:100CF000102B0020640600004101002078E1001064
:100D0000E8E1001094E10010D8E10010510100204A
:100D1000F0B5D6464F464646C0B505000C00052046
:100D200001F0E0FF060060088019210003F002FADC
:100D300007004300994681440521484603F0FAF92B
:100D400080463B1A9A46284B9C4224D87000801952
:100D5000264903F0EFF9441C4346023BA34221D34A
:100D60002B680022DA6629680A68042353400622A9
:100D70001A4080235B010B431A602B685246DA61EC
:100D80002B6842461A624B464F2B11D950214846D8
:100D900003F0D0F90DE070008019154903F0CAF98D
:100DA000441CD9E7134B144A5F21144801F0E6FDB7
:100DB0000120A0232A68D0502A6811007C31D06F0E
:100DC00044402404240C80235B010B431C602B68EB
:100DD0000122DA663900300003F0ACF9E0BCBA4613
:100DE000B146A846F0BDC0463F420F00809698002D
:100DF00040787D01F8E1001064E2001018E2001074
:100E000010B5114B98421CD01022104B1A60104B99
:100E10001A60104B9B6814009C43231EF9D1047187
:100E20000268D46602686624FF3414600268D363E3
:100E300002689363883303220468E250FFF768FF77
:100E400010BD0822E1E7C046C004002000E00040D9
:100E500000F0004000C0004010B503680024DC66CC
:100E6000002910D00468216880239B004B400B4967
:100E70000B408021490121430B6003689A6003689D
:100E80000122DA6610BD01680B6841225340034A13
:100E90001340802252010A431360F0E74102000030
:100EA000EFF3108072B6034B1B68002BFBD0BFF32F
:100EB0005F8F70472C0100D0BFF35F8F024B002281
:100EC0001A6080F3108870472C0100D0F8B5060036
:100ED0000C001500FFF7E4FFE308F718F15C0722A8
:100EE0002240012393400B4205D1DBB20B433B7000
:100EF000FFF7E2FFF8BD2100280001F0D9FDF0B5B1
:100F000083B00600019114001F00FFF7C9FF00E045
:100F10000134BC420CD8E308F518F35C07212140EA
:100F200001228A401A42F3D1D2B21A432A7001E058
:100F300001246442FFF7C0FF002C02DB200003B055
:100F4000F0BD019B002BF9D0089801F0B1FD000025
:100F5000034B1B6802201840431E9841C0B27047E3
:100F600000C00640002307E0054A9A189200BFF32C
:100F70005F8F0021116001331F2BF5D97047C046E8
:100F800040000034054A1078431CDBB21370172B65
:100F900002D9130010221A707047C046D0040020F6
:100FA00000B583B00100044B00931F2318220348AF
:100FB000FFF7A5FF03B000BD78E200106416002023
:100FC000074B9B68103080001950BFF35F8FBFF351
:100FD0005F8F044B0021196082F310887047C04670
:100FE00000ED00E0240100D010B5091A081F0A4BDB
:100FF0009C466144094A914208D8C30706D4401070
:101000004005400D064B184380B210BD054B064A03
:101010009921064801F0B2FCFC070000FE0F000019
:1010200000E0FFFF94E2001000E50010C4E20010B1
:1010300010B5091A04394C08090B08D14905490DA6
:10104000064A11430180064B2343438010BD054BE4
:10105000054AA121054801F091FCC04600F0FFFFC0
:1010600000F8FFFF10E30010D4E40010C4E2001009
:1010700001238340034A10681840431E9841C0B2C0
:101080007047C04600E100E0002904D0034B18601F
:10109000034B18607047034B1860FBE780E200E0E9
:1010A00000E100E080E100E010B50123834018007A
:1010B000FFF7EAFF10BD000001238340014A1360DF
:1010C0007047C04600E200E0024B9B681030800091
:1010D000C058704700ED00E010B5FFF7F5FF00289D
:1010E00005D0054BC01A2F2803D8012010BD0020C1
:1010F000FCE70020FAE7C046D404002070B50400E5
:101100000D00EFF3108672B60C4B1B68002BFBD062
:10111000BFF35F8F2000FFF7D7FF094B984201D044
:10112000A84205D1320029002000FFF749FF70BD19
:10113000044B054A7C21054801F020FC240100D025
:10114000CD01001020E3001034E50010C4E20010CF
:10115000F0B5DE4657464E464546E0B589B0814675
:1011600001911500EFF3108A72B6744B1B68002BC7
:10117000FBD0BFF35F8F724B0027DF57002F40DBA0
:101180007C00E419A4006F4824180622A2566C4B78
:101190001A706D4B9A684B4610339B00D358984693
:1011A0001E001B1A2F2B38D9684B98452FD105AE3E
:1011B000674B33807B009B46D8198000614B984673
:1011C000404402306349FFF70FFF7080624BB380E9
:1011D000FF23B371F571019B07935F44BF00474440
:1011E0000ECE0EC701231C43A04652464146484638
:1011F000FFF7E6FE09B0F0BCBB46B246A946A046E2
:10120000F0BD564B564ACD21564801F0B7FB564B20
:10121000534AD421534801F0B1FBC04340440C2150
:1012200002F088FF002912D101239E43B346330008
:101230000026DA79AA4211D90621595600290CDB79
:101240004A00521892001E003E4B9B18F1E7474B94
:10125000434AE021434801F091FB1E00002E3BD0A1
:1012600005AB434A1A80813A5A800623F35602930B
:10127000002B18DABD20000205AB9B469880029A2D
:101280009A71DD71019A0792301D2100FFF7ACFEC3
:10129000B080B7717B00DB199B002A4FFF185B46BB
:1012A00007CB07C7A1E77800C0198000254BC018FD
:1012B0000430321DB388D90A1C2907D15B055915A2
:1012C000023149005118FFF78FFED5E7294B2A4A12
:1012D000A721244801F052FB05AE1D4B33807B0053
:1012E0000293D8198000174A9046020042440392A4
:1012F000901C1849FFF778FE7080039A101D59461C
:10130000FFF772FEB0801D4B5A464146521A5241B9
:1013100053431B0DB371F571019A0792029B9C46D2
:101320006744BF0047440ECE0EC7114B5A46138088
:10133000813B538001231C43A04656E7240100D083
:10134000AF3D0020D404002000ED00E0CD010010EE
:1013500000A1FFFF0405002000BDFFFF58E30010BF
:101360001CE50010C4E2001080E30010A8E30010A8
:10137000014800001CE400100CE50010AAAA0000BF
:10138000F0B5CE46474680B583B006000D00EFF3BA
:10139000108872B6564B1B68002BFBD0BFF35F8FD3
:1013A000544B9A6834001034A300D758524B9F42D4
:1013B00007D0AF4200D199E00197504BFB1A2F2B79
:1013C00009D9424639003000FFF7FAFD03B0C0BC2E
:1013D000B946B046F0BD3000FFF74AFE8146002115
:1013E0003000FFF761FEBFF35F8FFEF73CFF002880
:1013F00001D0844211D10123019C9C430022A368A7
:10140000AB4212D00622A256002A0DDB53009B18D5
:101410009B002200394CE418F1E72C21384B394A63
:10142000FF31394801F0AAFA2200AB4257D1062514
:101430006557002D39DB6B005B199A002F4B9B1809
:101440009A68A260DA79E27106229A56A2719B79B3
:101450005BB2002B10DABD200002A0806B005B198C
:101460009B00264AD318294A11789971157049466C
:101470003000FFF719FEA4E7201D6B005B199B00ED
:101480001E4A9B181A1D9B88D90A1C2907D15B0587
:101490005B15023359005118FFF7A6FDDDE71C4B21
:1014A0001C4AA721184801F069FA002812D1002A25
:1014B0000ED0FF239371184B9380144A1378A371B5
:1014C000164B0E49641A644163431B0D1370CEE73B
:1014D000094FF2E7201D1249FFF7AAFDC7E7602177
:1014E000104B084AFF31084801F048FA024F68E7FC
:1014F000240100D000ED00E0CD010010D404002054
:1015000034E40010ECE40010C4E20010AF3D002011
:101510001CE400100CE5001000BDFFFFAAAA0000AB
:101520000E05002058E4001070B5040001260643A3
:101530002D4BF31A2F2B28D8FEF795FE00282BD021
:10154000EFF3108C72B6294B1B68002BFBD0BFF356
:101550005F8F274D22002449521A524155432D0DC9
:101560006DB2244B9B6880001B58B3421BD00022F5
:10157000032A32D853009B189B001B49CB189B7938
:101580005BB2AB421FD00132F2E7C2211A4B1B4AB9
:1015900049001B4801F0F2F988211A4B174AFF3124
:1015A000174801F0EBF9134B9B68174A1A50174B79
:1015B0001A78A2711D70BFF35F8F0C4B00221A6066
:1015C0008CF3108870BD08005300991889004118E9
:1015D000FF268E710E4A8A80E9E7CC210D4B074A1F
:1015E0004900074801F0CAF9D4040020240100D0C2
:1015F000AAAA000000ED00E060E40010B8E40010CA
:10160000C4E2001088E40010CD010010AF3D0020BE
:1016100000BDFFFF94E400100022044B02E00449E7
:1016200002C30132072AFAD97047C04600E400E03D
:101630008080808000B583B00100D0231B061B682A
:101640000648C018064B009305230022FFF757FCFD
:10165000002801DB1F23181A03B000BDA83D00209D
:101660009CE40010024B9C46614489000160704775
:101670004000003470B505000C00080000F018FDB3
:10168000200000F021FE0849200000F061FDFFF776
:1016900079FC064B9C466044800068602C75A40071
:1016A000034BE55070BDC046B9190010400000342E
:1016B000302B00200A4B1A68EFF3108172B61368C2
:1016C000002BFCD0BFF35F8F054B1B68BFF35F8F10
:1016D00000221A6081F3108840BF0020002170476B
:1016E000703D002010B5002922D003681B7B994271
:1016F0001ED8174B9C466144090183689C4661448F
:101700000C684968002A19D003681B7B9A4215D8D7
:1017100083680F488446624412019A18106853681F
:10172000020001208B4201D80ED00020C0B210BDB3
:10173000084B094A3B21094801F020F9054B064AAC
:101740003B21064801F01AF9A242EFD8EDE7C04666
:10175000FFFFFF0FA8E5001034E8001064E500105B
:1017600010B500291ED0037B99421BD84B005B1893
:10177000033B0468A4466344002919D0002A1DD005
:10178000914221D0002A25D0047BA24222D80468AD
:1017900050008018033820188170197800291FD153
:1017A0001A7010BD104B114A6821114801F0E6F87B
:1017B000104B114A6F310E4801F0E0F80F4B0E4A02
:1017C00070210B4801F0DAF80D4B0B4A71210848E3
:1017D00001F0D4F8044B054A6821054801F0CEF821
:1017E00041701A70DDE7C046DCE50010A0E800108B
:1017F000F8E5001050E600107CE800105CE60010F0
:1018000068E6001070B506000D001400002914D021
:10181000002A14D0806873689847002806D02200F8
:1018200029003000FFF79CFF280007E02A00210074
:101830003000FFF795FF200000E0100070BD0800A9
:10184000FCE70000F0B583B00500009201930AABFD
:101850001C780BAB1F78002C26D003685A7B94426F
:1018600007D10123002B19D1002C3BD1200003B05C
:10187000F0BD002C0CD01A7B944209D81A68630082
:101880001B19033BD3189B78002BEBD00123E9E70E
:101890003E4B3F4A68213F4801F070F83E4B3F4ABB
:1018A00065213F4801F06AF803689C7B002CDBD07F
:1018B00012D01A7B94420FD862001219033A1968A9
:1018C0008C46624451789973002900D1D973002362
:1018D000937053701370C7E72C4B2D4A68212D4825
:1018E00001F04CF8002C3AD02B681B7B9C4236D878
:1018F0002C4BE3181B01AA6894466344009A1A60B3
:10190000019A5A60089A9A60099ADA602E68002C47
:101910002BD030D0337B9C422DD863001B19033B66
:1019200032689446634400229A705A701A70717B30
:1019300022003000FFF766FF7073844200D095E705
:10194000287D009A019B00F04BFC061E01D0002F61
:1019500017D00C9B002B00D188E71E7086E7124B36
:10196000124A3B210E4801F009F8114B114AA521FA
:10197000084801F003F8054B054A6821054800F0C6
:10198000FDFF2868210000F053FEE2E7DCE50010CF
:10199000A0E80010F8E5001080E60010ACE80010A8
:1019A00064E50010FFFFFF0FA8E5001034E8001009
:1019B00060E5001090E80010F0B5DE4657464E4650
:1019C0004546E0B58BB00990002308938200B24BE6
:1019D000D658370032E0B14BB14A3F21B14800F050
:1019E000CDFFB14BB14A3B21B14800F0C7FFB14B2D
:1019F000B14A8C21AE4800F0C1FFB04BAE4A9021F5
:101A0000AB4800F0BBFFA84BAD4A4021A84800F00E
:101A1000B5FF2A686B68099800F0E2FB00239A463C
:101A200098467B68BFF35F8F00221A6086F31088A8
:101A30004346002B51D1002800D126E100F044FBA1
:101A400002000B1EC7DB002000210690079178687A
:101A5000EFF3108672B601680029FCD0BFF35F8FE8
:101A6000396888464C7B002C32D0BAD0097B8C4236
:101A7000B7D8944965182D01B9688C466544286823
:101A80006968801A99410029C3DC01D10028C0D1BE
:101A90000021404600F0C2FDA042A8D12A686B6830
:101AA00006920793AB689846EB689A464346002B2C
:101AB000A3D0002CA7D03B681B7B9C42A3D8631EFD
:101AC000FA68D35C08931B02184338610020A8E72A
:101AD00000239A4698460020A3E7089B1B02234355
:101AE000994651461800C04705000E007A68EFF38A
:101AF000108B72B6136859424B41D9B2002BF9D101
:101B0000BFF35F8F002E26DB002E52DD3B69002BDA
:101B100053D04B4572D100F0D7FA02000B1E73DB95
:101B20000100180052197341984202D804D1914221
:101B300002D901225242D317002B6BDB0021049102
:101B400001310391029451460191414600913800C0
:101B5000FFF778FE49E03B69002BD5D04B451CD1FF
:101B6000069A079B10001900521BB341994202D8F4
:101B700004D1904202D901225242D317002B12DB2A
:101B80000021049101310391029451460191414693
:101B900000913800FFF756FE27E04B4B464A9F2145
:101BA000434800F0EBFE3D4B3D4A3F213D4800F0ED
:101BB000E5FE002E01D1002DA8D13A68002C45D0B9
:101BC000537B9C422CD1012100293FD1D37B002B98
:101BD00042D1D473002C52D03B681B7B9C424ED820
:101BE000FA68013C135D0133135500233B617A68A9
:101BF000BFF35F8F13608BF310881FE7324B2E4AC1
:101C0000A2212B4800F0BAFE244B254A3F2125484B
:101C100000F0B4FE214B224A3F21224800F0AEFEE4
:101C2000002C0DD0137B9C420AD863001B19033B88
:101C30001068844663449B78002BC5D00121C3E71C
:101C4000224B234A6821234800F098FE224B234A66
:101C5000F621204800F092FE002B0AD0117B8B4227
:101C600007D85900CB18033B11688C4663445C705D
:101C7000AFE7164B164A6821164800F07FFE0A4B64
:101C80000F4A40210A4800F079FE0BB0F0BCBB4679
:101C9000B246A946A046F0BD302B0020A8E60010B1
:101CA00000E80010C4E60010A8E5001034E80010B9
:101CB00064E5001018E7001018E8001030E7001085
:101CC00058E80010FFFFFF0F3CE70010DCE50010B4
:101CD000A0E80010F8E5001078E700106CE80010AC
:101CE00010B50A4B5B68002B04D00A210848FFF7A7
:101CF000B9FC10BD054C2300064A1021206800F0F5
:101D0000ADFB03212000FFF7B5FCEEE71C0500202A
:101D1000703D0020E516001010B5064B5B68002BE7
:101D200001D0044810BD044B044A5C21044800F073
:101D300025FEC0461C0500209CE7001040E800106E
:101D400064E50010F0B5DE4657464E464546E0B520
:101D50008BB0804616001F00149B9A46159B99462F
:101D600016AB1B789B461F2302AA944663440022AD
:101D70001A7032E0002809D042461268127B904265
:101D800004D8421E4146C9688A5C48E0434B444A35
:101D90004021444800F0F2FD0798002B75D05B46C7
:101DA000002B72D04946D04704000D0003000B43BE
:101DB00000D171E0002946DB00F086F906000F1E15
:101DC00055DB36196F41B94202D804D1B04202D96D
:101DD00001267642F717002F4FDB43465A68EFF390
:101DE000108472B6136859424B41D9B20791002B47
:101DF000F8D1BFF35F8F1F3302AA94466344049364
:101E00000023039302934B46019353460093320001
:101E10003B004046FFF716FD031EABD102004146D2
:101E20004968BFF35F8F00250D6084F31088002B95
:101E300029D01F2302A98C4663441B78002BABD109
:101E400012021043A9E732003B00361BAF41BB42F0
:101E500002D804D1B24202D901267642F717002FE8
:101E6000BBDA114B114A3F21114800F087FD0E4BA0
:101E70000E4A3F210E4800F081FD0B4B0B4A3F21DB
:101E80000B4800F07BFD012040420BB0F0BCBB468C
:101E9000B246A946A046F0BD0798F6E7A8E50010AF
:101EA00058E8001064E50010A8E6001000E80010F3
:101EB000C4E60010F8B504004268EFF3108572B66E
:101EC000136858424341D8B2002BF9D1BFF35F8F5A
:101ED000CBB22268567BB3421BD10120002848D0E8
:101EE000206988422BD0090AC9B2002B2ED0206865
:101EF000007B83422AD8581EE668305C88422BD08B
:101F000000206368BFF35F8F00221A6085F310889A
:101F1000F8BD002B0DD0167BB3420AD85E00F61830
:101F2000033E1768BC466644B678002ED6D0012022
:101F3000D4E7134B134A6821134800F01FFD852195
:101F4000124B134A4900134800F018FD124B134A74
:101F50004021104800F012FD1900100000F068FB4D
:101F60000028CED112210E4B094AFF31094800F05A
:101F700005FD23698B42C4D100232361C1E7C0461C
:101F8000DCE50010A0E80010F8E50010C0E7001044
:101F9000E8E7001064E50010A8E5001058E800101C
:101FA000E4E7001070B584B006000C00FFF7B4FE43
:101FB000002302930193194B009332002300FFF793
:101FC000C1FE051E11DD20BFFFF7A6FE2900FFF7A9
:101FD00071FF134B5B6A9C421BD8114A926AB24252
:101FE0001AD29C4213D0012014E00D4B5B6A9C4234
:101FF00009D80B4A926AB24207D29C4201D0012012
:1020000008E0002006E0002004E0012002E00020BB
:1020100000E0002004B070BD0120FBE7B516001001
:102020000040054070B5EFF305833F20184010389D
:10203000EFF3108C72B6194B1B68002BFBD0BFF36B
:102040005F8F012319008140154A5163154A1278A8
:102050001400C440234214D0114B5C6A8300124D1B
:102060005B599C4206D38300104C1B598A430D498F
:102070000A7007E00A4A031D9B00995899500023F3
:1020800000E00023BFF35F8F044A002111608CF34E
:102090001088002B00D0984770BDC046280100D0A2
:1020A00000400540B53D00207C3D00205415002037
:1020B00010B50100024A0348FEF708FF10BDC046F4
:1020C000D0E80010AE3D0020044B5B6A034A906AE2
:1020D0001900536A9942F9D17047C0460040054043
:1020E000084B5B6A01E0074B5B6A8B42FBD301E064
:1020F000044B5B6A8B4203D1024B9B6A8342F7D34A
:102100007047C0460040054070B504000D00FFF761
:10211000DBFF02000B0020002900801859418B4290
:1021200002D804D1824202D901204042C1170029BD
:1021300002DBFFF7D5FF70BD024B034A3F21034886
:1021400000F01CFCA8E6001084E90010C4E60010B2
:1021500070B504000D00EFF3108672B61B4B1B68C0
:10216000002BFBD0BFF35F8F002D1CD02000FEF7AB
:10217000ABFF174B83420BD019002000FEF7BEFFC8
:1021800001212000FEF790FF0123A340114A1360B4
:10219000A400114BE550BFF35F8F0C4B00221A6077
:1021A00086F3108870BDA2000B4B0021D150012294
:1021B000A2400A490B7893430B7005492000FFF7B2
:1021C000DFF800212000FEF76FFFE4E7280100D0D0
:1021D000252000103860054054150020B53D002032
:1021E000F0B5DE4600B584B00400150001921E0073
:1021F0000293FFF769FF03958E4202D84ED18542C4
:102200004CD9EFF3108B72B6274B1B68002BFBD019
:10221000BFF35F8F254A17780125A540EBB23B43FA
:102220001370234B5D63221D92000199D150A200CF
:102230002049029850501B6A2B4212D11C4B1B6C38
:102240002B4208D00020BFF35F8F174B00221A608B
:102250008BF3108823E0184B184AC121184800F06E
:102260008DFBFFF731FF8E4214D802D1039B8342CE
:1022700010D80E4B1B78BB420ED00D4B1D625D6318
:102280001F2004400123A3400E4A1360074B1F7018
:102290001E38D8E70020D6E70120D4E7012004B09B
:1022A00080BCBB46F0BDC046280100D0B53D002033
:1022B000004005407C3D0020F4E8001068E9001073
:1022C00018E9001080E200E0EFF3108C72B60B4BBF
:1022D0001B68002BFBD0BFF35F8F01238340084AAC
:1022E000136208490A789A430A70BFF35F8F034B61
:1022F00000221A608CF310887047C046280100D075
:1023000000400540B53D002010B500291ED0037BDC
:1023100099421BD84B005B18033B0468A4466344F6
:10232000002919D0002A1DD0914221D0002A25D0A1
:10233000047BA24222D80468500080180338201879
:102340008170197800291FD11A7010BD104B114AE5
:102350006821114800F012FB104B114A6F310E48F2
:1023600000F00CFB0F4B0E4A70210B4800F006FBEF
:102370000D4B0B4A7121084800F000FB044B054A45
:102380006821054800F0FAFA41701A70DDE7C0468E
:10239000DCE5001094EA0010F8E5001050E60010AB
:1023A00080EA00105CE6001068E6001070B50600D8
:1023B0000D001400002914D0002A14D0806873681E
:1023C0009847002806D0220029003000FFF79CFF24
:1023D000280007E02A0021003000FFF795FF2000C9
:1023E00000E0100070BD0800FCE7000010B50023FD
:1023F000437301338373037BC3730123027B9A42CC
:1024000014D9002B0CD0027B934209D85A00D21861
:10241000033A01688C4662440133DBB25370EDE746
:102420000B4B0C4A68210C4800F0A8FA002A09D08E
:10243000924207D8016853009A18033A8A18002379
:10244000537010BD024B034A6821034800F096FA0E
:10245000DCE5001094EA0010F8E5001010B50173F7
:1024600042608360FFF7C2FF10BD000070B504003A
:10247000081E00D170BD002934D0237B994231D889
:102480004B005B18033B2268944663445A78002A49
:10249000F0D02DD0237B9A422AD853009B18033BBF
:1024A00021688C4663445D7800215970002825D04E
:1024B000237B984222D843001B18033B21688C469B
:1024C00063440021597001002000FFF76FFF0600F0
:1024D00029002000FFF7CAFF020031002000FFF7AB
:1024E00065FFC7E7084B094A6821094800F046FA2A
:1024F000054B064A6821064800F040FA024B034AA1
:102500006821034800F03AFADCE5001094EA001074
:10251000F8E5001070B505000C001600002928D061
:102520002DD0037B99422AD84B005B18033B0268ED
:10253000944663445A78002A27D19A78002A2AD1EF
:102540001978FFF793FF0300002E03D0EA7B002ADF
:1025500027D1EC73002B37D1002C49D02B7B9C4228
:1025600046D82B6861000C19033C1C1900236370CA
:1025700070BD224B224A3821224800F0FFF9224B3D
:10258000224A6821224800F0F9F9224B1C4A3A21DC
:102590001C4800F0F3F9204B194A3B21194800F080
:1025A000EDF9002A0AD0297B8A4207D851008A18FF
:1025B000033A29688C4662445470CAE7124B134AA6
:1025C0006821134800F0DAF9002B0BD02A7B9342E4
:1025D00008D843001B18033B2A6894466344002232
:1025E0009A70B9E7084B094A6821094800F0C6F912
:1025F000054B064A6821064800F0C0F99CE9001026
:102600006CEA0010A4E90010DCE5001094EA001068
:10261000F8E50010E8E9001010EA001070B50400B9
:102620000A00457B2900FFF775FF6073280070BD25
:1026300070B50400002967D0437B8B420ED000297F
:1026400011D0037B99420ED84B005B18033B026804
:10265000D0188378002B0CD1002056E00121FFF721
:10266000DDFF012051E0294B294A6821294800F06B
:1026700085F9002B20D0227B93421DD85A00D31815
:10268000033B2268D2182568EB5C8B421AD0002BE2
:102690001BD0227B934218D85A00D318033B2268E0
:1026A000D21853788B4216D0002BF0D11A4B1B4A0C
:1026B00067211B4800F062F9144B154A6821154840
:1026C00000F05CF94378137007E0104B104A682162
:1026D000104800F053F9437853700023837043701F
:1026E00001222000FFF716FF0200617B814205D026
:1026F0002000FFF75BFE6073012006E0094B074AEC
:102700006D21074800F03AF9002070BDDCE50010AB
:1027100094EA0010F8E5001094E4001054EA001068
:10272000A4E9001034EA001010B50400FEF72AFCFA
:1027300001002000FEF796FFFF232371BFF35F8F98
:1027400010BD10B50400FEF71DFC01002000FEF7CF
:1027500089FFFF23237100236371BFF35F8F10BDD7
:10276000034B9C46614489000160BFF35F8F704753
:102770004000003410B504000120FEF711FC0100F8
:102780002000FFF7EDFF10BD10B58300084A944606
:1027900063441C6840226240C024144080225201DD
:1027A00013431C60C000034B9C466044416010BD55
:1027B00004C001400040014080000B4B9C46604437
:1027C00000290DD00823002A0CD0042213430268EC
:1027D00053400C2213408022520110430360704783
:1027E0000023F0E70022F1E704C00140002909D0EE
:1027F0008000094B9C46604480239B011843402382
:10280000036070478000044B9C466044C0239B01DA
:10281000184340230360F4E704C0014010B50123CE
:102820008340D0221206936293610521FFF7ACFF2B
:1028300010BD000070B504000D00062000F052FA33
:10284000C000290001F076FCC60908D00E4B9E425C
:1028500017D87F23184001303500460800E00125D5
:102860006562A6622C34802080010443002323602B
:10287000062000F037FA8000A901891901F05AFCFE
:1028800070BD0026014DEBE7FEFF0000FFFF0000DA
:10289000002909D00A22064B9C4660444342584115
:1028A0004000044BC252704780225200F3E7C046FA
:1028B0000080FCBF8C3D002070B505000C00062098
:1028C00000F010FA002829D0164B9D4227D0802214
:1028D000D203154B1A60154B1A60154B9B681100FB
:1028E0009943FAD100212800FFF7D2FF21002800E8
:1028F000FFF7A0FF2C002C34E96A60224A406E21C9
:10290000114080225201224311600A4B2B63802325
:102910009B01234310221A600323AB6470BD802205
:102920001204D6E70080034000E0004000F00040C1
:1029300000C000400103000000BEFDE703000A4A9A
:102940001268002A08D0084A1068C318074A9A4239
:1029500006D3054A13607047034A05491160F2E740
:1029600001204042F7E7C0460C2700200000042069
:10297000B83D002010B5FFF7DFFF000010B582B0B2
:102980000C001900002A0CD0084B002A0BD0019231
:10299000009323000200064802F0FEFC0120FFF72E
:1029A000CBFF044BF1E7034AF1E7C04674EB00109C
:1029B00084EB001080EB001070B52B4B2B4A1A6093
:1029C0002B4B2C4A1A602C4B9A682A4B9343FAD112
:1029D0002A4C01E008CC9847294B9C42FAD300F0DE
:1029E00001F9234B274A1A60234B9B68DB43DB0129
:1029F000FAD1254B40229A675A671A67DA66234C48
:102A000009E0234B234A83212348FFF7B7FF200027
:102A1000FFF78AFE0834214B9C4209D22368002B21
:102A2000F5D0012BEDD12000FFF78BFE0834F2E743
:102A30001B4CA1681B4DC022280002F0F7FAA560CC
:102A4000FDF711FC002800D000BEFEF78BFAFEF760
:102A5000E3FDFFF745F9144C01E008CC9847134B10
:102A60009C42FAD370BDC04600E00040BFCDFBFEE3
:102A700000F00040FE7F3C0000C000407C0F0020C2
:102A80008C0F0020FFFFFF0100F00140740F0020B9
:102A9000B4EB001034EC0010D4EB00107C0F0020DD
:102AA00000ED00E0000000208C0F0020940F0020BB
:102AB0000FB400B583B0084802F03CFC049B002B27
:102AC00007D005A90191180002F044FC034802F068
:102AD00031FC0120FFF730FF24EC001014E100105E
:102AE000F8B5DE4657464E464546E0B505000F00B0
:102AF00092460A9A93424ED31A0E91461E020A9AA1
:102B000000233000494601F057FB80466C006419F1
:102B1000A4002F4B9C4664446368834200D26060EB
:102B20002B1FDBB29B46012B3BD9C0239B012343C8
:102B3000802212011A60AB00264A9958002905D05C
:102B4000506901F0F7FA01300138FDD153465A01BE
:102B500023685A40E0231A4080235B0123431A6014
:102B60005A46012A28D980239B012343802212013F
:102B70001A6043466360424600233000494601F034
:102B80001BFBAD00134B58510120F0BCBB46B246B5
:102B9000A946A046F8BD104B104A2D211048FFF75A
:102BA000EDFE012FC1D1C0239B01234303221A60F4
:102BB000A368DB07FCD5C9E72168794003220A40F6
:102BC0001A60A2680123BB401342FAD0CBE7C0468B
:102BD000008000406816002044EC0010A8EC0010B3
:102BE00058EC001030B583B00C2000F021F9FEF74E
:102BF000AFF900280DD0002304E099002D4A2E489B
:102C000088500133092BF8D92A4B2C4A5A6203B059
:102C100030BD2B4B00229A6700F07CF9294B012232
:102C20001A60274B5B6C012BFBD1274B03221A60E8
:102C3000234B9B6B012BFBD1013300930433234ABD
:102C40000121234800F054F805230093214A012173
:102C5000214800F04DF8214B00930022022104206E
:102C6000FFF73EFF1E4D00952B000022012105209D
:102C7000FFF736FF104C00942300002200210720AC
:102C8000FFF72EFF00942300002200210820FFF709
:102C900027FF0A4B00932300002200210920FFF7A1
:102CA0001FFF00952B00002200210620FFF718FFD0
:102CB000ADE7C04668160020006CDC021BB70000C0
:102CC000008000403CB0004030B00040002F685908
:102CD00000800240008C864700C00240001BB70005
:102CE000405973078000014BC05870476816002098
:102CF000F0B5C64600B504000F0090461D000C203C
:102D000001F018FA06003D4A42443D4B9A4243D82E
:102D100043011B1A9901C91AC900091889014046C3
:102D200001F008FA0200103A98235B009A4239D861
:102D30006B1E062B3CD8069B013B062B38D8069B06
:102D40009D423BD343461A09B2423DD32D04069B14
:102D50001E0335432368002B3CDB2A4B9C424AD0A0
:102D600080225201284B1A60284B1A60284B9B681E
:102D700011009943FAD12760A060231DC02292015F
:102D80001A43212313602368002BFCDAE560082333
:102D9000136080BCB846F0BD1E4B1F4A11211F486E
:102DA000FFF7ECFD1E4B1C4A19211C48FFF7E6FDFE
:102DB0001C4B194A1C211948FFF7E0FD1A4B164A13
:102DC00022211648FFF7DAFD184B134A2521134834
:102DD000FFF7D4FD22683F231340BB42BDD1A36857
:102DE0001B051B0D8342B8D1E368EE22D2021340CB
:102DF000AB42B2D1CDE780229201B3E780E84BD35A
:102E000080F8A93200C0024000E0004000F000401D
:102E100000C00040B8EC001000EE001018ED0010EB
:102E200064ED001080ED0010CCED0010E4ED00101A
:102E300080239B000343014AD36270470080054012
:102E4000024B1A68024B5A607047C046282B00207C
:102E50000080054010B50200164B8020C0051860A8
:102E6000154B1648186000290AD0154BE021C904FB
:102E70001960002A09D1124B802212061A6010BD77
:102E80000C4BE021C9041960F3E753019B1A980029
:102E9000801800010B4B186080235B04984202D31A
:102EA000084B094A1A60FFF7CBFF054B8022D20579
:102EB0001A60E4E700B0054008200140FCFF010073
:102EC00000A00540282B0020FFFFFF0010B50300E5
:102ED00010000C4A8024E4051460002B0DD0012260
:102EE0001343094A094CD461094C5C401462516295
:102EF00093620021FFF7AEFF10BD034B0022DA61A1
:102F0000F7E7C04600B0054000800540D3C007B0D9
:102F10002D3FF84F064BAA2212011A602F22DA60C9
:102F2000044B054A1A60024B5B68002BFBDA7047C2
:102F3000004002400060024000B0FA00704710B547
:102F4000002802D00B684968984710BD0100002096
:102F500007E083001B185B00501C08601078C01845
:102F600030380A681378303BDBB2092BF1D970474F
:102F7000F0B5DE4657464E464546E0B583B093462B
:102F80001F000C9B9A460D9C0E9B99460F9B9B071E
:102F900003D0B8460F00060022E00192A3468846FF
:102FA0004E46B9460700B44207D2551C4B4641462F
:102FB0002020B84701342A00F5E73D004F465C4623
:102FC000019B9B46B1464646B84637002E0007E0B7
:102FD000013C551C5346185D43463900B0472A0052
:102FE000002CF5D135003E0047460F9B9B0707D4C8
:102FF000100003B0F0BCBB46B246A946A046F0BDE7
:10300000B0464E46B9462F005D46531BB342EFD241
:10301000541C4B4641462020B8472200F5E7F0B546
:10302000CE46474680B585B0944698460C9D0D9C8B
:103030000EAB1B789946109A119B129EB7071CD4B1
:10304000002B0CD0F7070AD54F46002F02D10C37C2
:10305000374204D0013B02E030272F55013494421F
:1030600001D21F2CF8D9F70707D59C4205D21F2C97
:1030700003D830272F550134F5E7F70615D5770526
:1030800005D4002C03D0944224D09C4222D00F9A25
:10309000102A2BD00F9A102A30D00F9A022A35D03E
:1030A0001F2C02D830222A5501341F2C05D84A463D
:1030B000002A31D02D222A5501340396029301941F
:1030C000009543466246FFF753FF05B0C0BCB946C2
:1030D000B046F0BD621E012C06D00F9F102F01D00C
:1030E0001400D4E7023CD2E71400D0E7B206D1D4F2
:1030F0001F2CCFD878222A550134D1E7B206CCD57F
:103100001F2CCAD858222A550134C9E71F2CC7D80A
:1031100060322A550134C3E7720703D52B222A55A2
:103120000134CAE73207C8D520222A550134C4E742
:10313000F0B5DE4657464E464546E0B593B081466B
:103140008A46089209931CAB10CB1B789B461E9DA8
:10315000219B9846002C03D1102342469A43904667
:103160008023DB0046461E4042461A4212D0002C05
:1031700022D000260EE03033D9B2771C0AAB995525
:103180002900200000F0D6FFAC4216D31F2F14D820
:103190003E0004002900200000F0CCFFCBB2092B38
:1031A000E9D94246920605D54121C918C9B20A3962
:1031B000C9B2E2E76121F8E7270043460693209B66
:1031C00005931F9B049303955B46029301970AABFB
:1031D0000093099B089A51464846FFF720FF13B019
:1031E000F0BCBB46B246A946A046F0BDF0B5DE46EF
:1031F00057464E464546E0B595B0089009910A926B
:103200000B931E9E1F9C20AB1B789B46229B9946CE
:10321000239D269B9A463300234303D11033524605
:103220009A4392468023DB0057461F4052461A427B
:1032300019D0330023432DD0002714E03033DAB205
:103240007B1C98460CABDA554A462B003000210017
:1032500000F0B2FFA5421FD819D043461F2B1BD840
:10326000474606000C004A462B003000210000F0C3
:10327000A3FFD3B2092BE1D95246920605D54122CC
:10328000D218D2B20A3AD2B2DAE76122F8E7B145EF
:10329000E3D901E00023984653460693259B059306
:1032A000249B04934B4603935B460293434601934E
:1032B0000CAB00930B9B0A9A09990898FFF7AFFE95
:1032C00015B0F0BCBB46B246A946A046F0BD000012
:1032D000F0B5DE4657464E464546E0B591B08346CA
:1032E0008A460C9298461A9C08941B9D09952200C8
:1032F0002B002000290001F0F6F9002800D0E5E0BD
:1033000001225242D74B2000290001F0E7F90028A2
:1033100000D0DBE001225242D34B2000290001F013
:10332000C7F9002800D0D1E000220023089E300019
:10333000099D290001F0BCF9002800D0DDE00898C3
:103340000999069007918023DB001E9A1A400D927E
:103350001E9A1A4201D106231C930698079904006D
:103360000D000A000600024300D1D1E0080D40051F
:10337000400DBE4CA44660440A03120BBC4B1343E1
:103380001F0001F0C3F9BB4ABB4B01F046F9BB4A31
:10339000BB4B01F01BF904000D000022B94B3000BB
:1033A000390001F00AF9B84AB84B01F036F90200C9
:1033B0000B002000290001F009F901F0BFF9814656
:1033C00001F0A4F904000D00B14AB24B01F025F957
:1033D0000022B14B01F0FAF801F0B0F90600AF4A53
:1033E000AF4B2000290001F018F904000D00300057
:1033F00001F08CF9AB4AAC4B01F00FF902000B0065
:103400002000290001F0D9F804000D0002000B0093
:1034100001F003F90A900B91A44BF31800261F0545
:1034200022002B002000290001F0D0F80E900F910F
:1034300022002B0000208021C90501F0BEF8040005
:103440000D0000229A4B0A980B9901F0C8F800224F
:10345000984B01F0BBF802000B000A980B9901F0A1
:10346000BEF80022944B01F0B1F802000B000A985C
:103470000B9901F0B4F802000B002000290001F0C4
:10348000A5F802000B000E980F9901F0A8F8002291
:10349000774B01F09BF832003B0001F0BEF80600CC
:1034A0000F0004000D00069A079B01F017F9002891
:1034B00030D001235B429C46E14400227D4B30002A
:1034C000390001F08CF804000D0023E01E9B0493EA
:1034D0001D9B03931C9B0293089A099B00920193E6
:1034E00043460C9A5146584600F0FCF811B0F0BC27
:1034F000BB46B246A946A046F0BD00230024069371
:103500000794069680231B069C46654407951AE798
:10351000002399464B466333C62B1ED804261E9BB8
:103520001B0526D52B0023430FD0644A644B069815
:10353000079901F0CBF8002879D00022614B06985A
:10354000079901F0B5F8002871D01C9B4B4506DDAA
:103550004A46981A431E1C9303E00526DFE7002322
:103560001C938023DB001E9A1A431E920026002320
:1035700099461D9B9E4264D29F1B02231E9A1A40AD
:103580000A921E9A134202D0002E00D000274B460A
:10359000002B07D022002B000698079901F01FF896
:1035A00006900791002200230898099901F080F8FD
:1035B000002848D1444B1E9A1340049303971C9B48
:1035C0000293069B079C0093019443460C9A514634
:1035D000584600F087F8002E00D187E71E9B9B0617
:1035E0003DD54525441C4346020051462800D84796
:1035F0004B46DA179B18534005220592013E04966C
:10360000002203920A3202924A46D00F01900093A0
:103610004346220051465846FFF78AFD0A9B002B7D
:1036200000D163E702005F460C9E1D9D54E01C9B89
:10363000002B9ED00D9B002B9BD01C9B013B1C9311
:1036400097E7002799E7069C079D22002900802024
:103650000006844661440B0006920793AAE765259D
:10366000C0E7C046FFFFEF7FFFFFEFFF01FCFFFF5A
:103670000000F03FFB799F501344D33FB3C8608BE9
:10368000288AC63F0000F83F61436F63A787D23F97
:1036900071A379094F930A400000E03F1655B5BB6E
:1036A000B16B0240EF39FAFE422EE63FFF03000005
:1036B00000002C4000002440000018402D431CEB6B
:1036C000E2361A3F80842E41FFF7FFFF541C434629
:1036D00051462020B8472200931BAB42F6D310007E
:1036E00004E7C046F0B5DE4657464E464546E0B5CF
:1036F00095B00690079193469946209F1E9A1F9B6E
:103700001000190000F0EFFF002831D101225242D1
:10371000BF4B1E981F9900F0CBFF002837D1012224
:103720005242BC4B1E981F9900F0D8FF00283DD193
:103730000022B94B1E981F9900F0D0FF002850D1ED
:103740000022B64B1E981F9900F0B2FF002848D106
:10375000002200231E981F9900F0AAFF002850D1D4
:1037600000239846229B5B0500D4B6E0002458E075
:10377000229B0393219B029303230193A84B009365
:103780004B465A4607990698FFF7F2FB0EE1229B3B
:103790000393219B029304230193A24B00934B4676
:1037A0005A4607990698FFF7E3FBFFE00423229AA5
:1037B0001A4022990B4210D09B4B002A0FD00422B2
:1037C0002299039121990291019200934B465A4606
:1037D00007990698FFF7CCFBE8E0944BEDE703224E
:1037E000EEE7229B0493219B039302971E9B1F9C51
:1037F000009301944B465A4607990698FFF768FDD7
:10380000D4E01E9A1F9B0020002100F0D6FE1E90DF
:103810001F9101239846A5E70CAB30221A55013FB2
:1038200001341F2C01D8092FF6D81E981F9900F0DB
:1038300085FF050000F06AFF02000B001E981F992B
:1038400000F0BBFEFA007A4B9B181A685B680A927C
:103850000B9300F0E2FE0890099100F093FF060040
:1038600000F050FF02000B000898099900F0A5FE37
:103870000890099100226F4B00F030FF00282ED0F5
:103880000136300000F03EFF02000B000A980B9951
:1038900000F014FF002801D001350026002F2CD1A4
:1038A000280000F033FF02000B001E981F9900F063
:1038B00084FE06000F0000225E4B00F0F9FE002897
:1038C00046D100225B4B3000390000F007FF002892
:1038D0003ED1EB073CD501353AE0062746E700220A
:1038E000544B0898099900F0E3FE0028D6D1002E29
:1038F00001D0F307D2D50136D0E7AA461F2C11D844
:10390000013F0A21300000F015FC651C30310CAB82
:1039100019550A21300000F00DFC092E0ED90600C1
:103920002C00EBE755461F2C0CD87B1E002F09D02E
:103930000CAA302111551F000134F4E72B00554625
:103940001C00F0E71F2C03D80CAB2E221A550134B3
:103950001F2C10D80A21280000F0C4FB661C30314F
:103960000CAB19550A21280000F0BCFB051E01D044
:103970003400EDE734000323229A1340012B1CD0BE
:103980001F2C06D84346002B32D00CAB2D221A55E3
:103990000134229B0393219B029301940CAB00936F
:1039A0004B465A4607990698FFF7E2FA15B0F0BC65
:1039B000BB46B246A946A046F0BD219B002B13D0C2
:1039C0004346002B02D10C3313420FD0219B013B05
:1039D0002193190003E00CAB30221A5501348C42BC
:1039E000CED21F2CF7D9CBE72199F8E72199F6E73A
:1039F000229B5B0704D50CAB2B221A550134C8E778
:103A0000229B1B07C5D50CAB20221A550134C0E7F9
:103A1000FFFFEFFFFFFFEF7F65CDCD4165CDCDC14E
:103A200018EE00101CEE001010EE00100CEE00104E
:103A300008F000100000E03FF0B5DE4657464E4665
:103A40004546E0B593B082468B46904611930029D7
:103A500000D1EBE200275546119B1878002800D1D1
:103A6000E7E2252809D07C1C43463A005946A8477E
:103A7000119B013311932700EEE7013311930024CA
:103A8000119A11780B00203BD8B2102803D883007C
:103A9000D048C3589F460B00303BDBB2092B2CD9D2
:103AA0002A292FD000230A93119B1A782E2A39D065
:103AB00000239A46119A1378683BD9B2122976D816
:103AC0008B00C549CB589F4601231C4301321192FC
:103AD000D6E702231C4301321192D1E704231C4391
:103AE00001321192CCE708231C4301321192C7E73F
:103AF00010231C4301321192C2E711A8FFF726FAE6
:103B00000A90D1E71C9B1A1D1C921868002804DB40
:103B10000A90119B01331193C6E702231C434342D1
:103B20000A93F6E78022D20014435A1C11925A7865
:103B30001300303BDBB2092B04D92A2A07D000231B
:103B40009A46B7E711A8FFF701FA8246B2E71C9B35
:103B50001A1D1C921868002804DB8246119B013351
:103B60001193A7E70020F8E780235B002343511C53
:103B7000119152786C2A01D01C0018E0C0239B00E0
:103B80001C430131119112E080232343511C1191F8
:103B90005278682A01D01C0009E0C0231C4301317F
:103BA000119104E080235B001C4301321192119BB0
:103BB00018780300253BDAB2532A00D92CE293008F
:103BC000864AD3589F4680239B001C4301321192A2
:103BD000EDE780235B001C4301321192E7E7782870
:103BE00009D0582838D06F2838D0622838D0102310
:103BF0009C430A2600E01026582833D0692803D0B9
:103C0000642801D00C229443630501D5012294431A
:103C100069282AD0642828D0A30500D59FE0E305B1
:103C200000D5B8E0630600D4CAE01C9A111D1C91AF
:103C30001168FF220A4005940A9B0493534603939C
:103C4000029600230193009243463A005946280009
:103C5000FFF76EFA070027E01026CDE70826CBE72E
:103C60000226C9E720221443C8E7A30520D4E305B0
:103C700050D4630666D51C9A111D1C911168FF2251
:103C80000A40D317D118594005940A9B0493534610
:103C900003930296D20F0192009143463A0059468F
:103CA0002800FFF745FA0700119B01331193D3E673
:103CB0001C9BDA1D07218A43110008311C911168F1
:103CC00053689C46DB170C930D930C9A0D9B1000C8
:103CD00048400E90624653400F930E980F990C9AED
:103CE0000D9B801A99410E900F9108940A9B07939F
:103CF000534606930496002305936346DA0F029217
:103D00000090019143463A0059462800FFF76EFAA9
:103D10000700C9E71C9A111D1C911268D317D1180E
:103D2000594005940A9B0493534603930296D20F7D
:103D30000192009143463A0059462800FFF7F8F9EE
:103D40000700B1E7230605D51C9A111D1C9100231D
:103D5000D25E96E71C9A111D1C91126891E71C9B7C
:103D6000DA1D07218A43110008311C9108940A9B2F
:103D70000793534606930496002305930293136812
:103D800054680093019443463A0059462800FFF7CF
:103D90002DFA070088E71C9A111D1C9105940A9BB7
:103DA00004935346039302960023019313680093F0
:103DB00043463A0059462800FFF7BAF9070073E76F
:103DC00023060DD51C9A111D1C9112681204120CA9
:103DD00031E7C04624EE001068EE0010B4EE00108B
:103DE0001C9A111D1C91126825E746281AD01C9BAD
:103DF0000733072293431A0008321C9204940A9A4C
:103E00000392524602925C681B68009301944346F9
:103E10003A0059462800FFF765FC0700119B013363
:103E2000119319E620231C43E1E7672801D04728B6
:103E300002D180231B011C43452801D0472801D112
:103E400020231C431C9B0733072293431A0008328C
:103E50001C9204940A9A0392524602925C681B6870
:103E60000093019443463A0059462800FFF730FA80
:103E70000700119B01331193EEE502231A00224043
:103E8000924623421FD001241C9B1A1D1C927A1CAF
:103E90009146187843463A005946A8475346002BA6
:103EA00016D1119B013311934F46D5E5561C43465D
:103EB00059462020B847230032005C1C9D42F5D8AB
:103EC0003D001700E0E701233A002F000A9DF4E7C8
:103ED0004A46A9460A9D06E0571C434659462020FB
:103EE000C84734003A00661CA542F5D84D469146B5
:103EF000D7E71C9B1A1D1C921B6899465346002B42
:103F000000D1013B4E4601E0013613003278002A11
:103F100002D05A1E002BF7D14B46F21A1092802382
:103F2000DB0026001E401C4203D0524501D95346F7
:103F3000109302231A0022400B92234205D03A002C
:103F400037004C46A946554620E03A00109B5F4694
:103F5000B3462E0006E0551C434639002020B047EA
:103F600023002A005C1C0A999942F4D835005E4669
:103F7000BB46109437004C46A946554606E01D0046
:103F80000134561C43465946C84732002078002861
:103F900004D0002FF4D06B1E002DF0D117004D4639
:103FA0000B9B002B03D1119B0133119354E50A9F06
:103FB000109B06E0561C434659462020A847230084
:103FC00032005C1C9F42F5D81700ECE721231C430C
:103FD0001C9B1A1D1C921B680093059408230493D4
:103FE00053460393102302930023019343463A0060
:103FF00059462800FFF79CF80700119B01331193E5
:104000002AE57C1C43463A0059462520A847119BC7
:104010000133119327001FE57C1C43463A005946A3
:10402000A847119B01331193270015E50A4B9A46C7
:1040300010E5AA46474502D343465A1E00E03A001F
:10404000434659460020D047380013B0F0BCBB4669
:10405000B246A946A046F0BD3D2F001000B585B080
:10406000029003910121009313004A4202A90248E1
:10407000FFF7E2FC05B000BD3F2F0010014804210E
:10408000014B184750050020AD40001010B501004D
:1040900018231B8814221088984710BD10B5010002
:1040A00018231B8816221088984710BDF0B5C64605
:1040B00000B507000E0000250123984600E00135F9
:1040C000B5420AD2AC003C192068FFF7DFFF206040
:1040D0000028F4D100239846F1E7404680BCB8465A
:1040E000F0BD0000124A936F9B0815D29066D1660E
:1040F000002905D0FFE7FFE7FFE7516F106F70471A
:1041000004B580210906C2175140002800D0C843D9
:1041100009F0CAFF002104BDF0B5146E556E576F4B
:10412000166FFFF7E3FF1466556657671667F0BD15
:10413000000000D0114A936F9B0813D2106651669D
:10414000002905D0FFE7FFE7FFE7516F106F7047C9
:1041500004B5002801D00020C04309F0A5FF0021CC
:1041600004BDC046F0B5146E556E576F166FFFF75D
:10417000E5FF1466556657671667F0BD000000D06E
:1041800094464E4A926F9208624601D230E0C04691
:10419000F0B54A4EB56F6D08FCD3346E756E776F0F
:1041A000366F00F025F89446444A14665566576702
:1041B00016676246F0BDC0469446404A926F920828
:1041C000624601D258E0C046F0B53C4EB56F6D086E
:1041D000FCD3346E756E776F366F00F04DF89446F1
:1041E000364A14665566576716676246F0BDC04684
:1041F000002B24DB11D000293EDA00B5C943404230
:1042000000D1013100F038F8C943404200D10131FA
:10421000DB43524200D1013300BD002AEBD100281C
:1042200001D1002905D00020C90FC90701D1C04321
:10423000410800B509F030FF0022002300BD00B5A1
:1042400000290ADBDB43524200D1013300F014F8AD
:10425000C943404200D1013100BDC943404200D1B1
:104260000131DB43524200D1013300F005F8DB435A
:10427000524200D1013300BD002923D1002B18D1B7
:10428000002A0CD0BC460D4F38667A660021002308
:10429000FFE7FFE7FFE77A6F386F67467047002850
:1042A00001D00748010000B509F0F6FE0022002306
:1042B00000BD02000B00002000217047000000D06C
:1042C000FFFFFFFF002B00D0BFE0130C28D1002A16
:1042D000E7D080B4114F39667A66FFE7FFE730B464
:1042E000040C7B6F396F1B0423433B667A66FFE740
:1042F000FFE7FFE7C04684B27B6F3D6F1B0423439B
:104300003B667A66FFE7FFE7C04600232C042D0CCE
:104310007A6F386F00196941B0BC7047000000D057
:10432000F0B594460025140E01D112020835140F81
:1043300001D112010435940F01D192000235D40F3E
:1043400001D152000135D40B0134254F7C66254C38
:104350003C660E0C93B2FFE7FFE7FFE73C6F664356
:10436000360C7703BE467343DF0B5B04C01AB941BA
:10437000130C7343DB18C91ACE086643360CB644D7
:1043800093B273431F0F1B01C01AB941130C73433F
:104390001F0B1B05C01AB941860D8F023E436643B1
:1043A000360C092D24DB520A7243801A7703460A21
:1043B0006643360C16235B1BDE40DF40BF196446A4
:1043C0006643821B7046043506330100D940A8407D
:1043D000C01900D30131A24206D20023F0BD000073
:1043E000000000D0FFFFFFFF121B0130F3D3F1E705
:1043F00009277F1BFE406446A2B27243801A00D296
:104400000139220C7243130C1204821A99410B00D9
:104410007046043513370100F940A840801900D3D5
:104420000131002B02D1A2420AD2F0BD013000D3EB
:104430000131121BFAD2013BF8D1A24200D2F0BDE9
:10444000013000D30131121BF7E7F0B51C0C00D08E
:1044500080E00CB400251C0A04D11B02160E334365
:10446000120208351C0B04D11B01160F3343120135
:1044700004359C0B04D19B00960F33439200023508
:10448000DC0B02D192185B4101351C009718644186
:104490000134464F7C66464C3C660E0CFFE7FFE756
:1044A000FFE7C0463C6F6643360C7703BE4697B2C3
:1044B0007743C01B00D20139C01B00D201399FB223
:1044C0007743C91BC91B170C77437E04FF0B801B66
:1044D000B941CE086643360C0C2D33DBB644120BC3
:1044E0001F053A431B0B97B27743C01B00D201391B
:1044F0009FB27743C91B170C77433E043F0C801BC8
:10450000B941860D8F023E43664329277F1BFE403B
:104510000C3D7746AF40BF1930BCA2B2ABB272437C
:104520007343801A9941220C7243130C1204801AAF
:10453000994102000B000137001BA941F9D2781EF6
:104540000021F0BD0C277F1BFE4077467F0BAF405C
:10455000FF19E0E700245D1C07D0144F7D66396623
:10456000FFE7FFE7FFE7FFE73C6F95B29EB26543C9
:104570006643401BB141150C1E0C6543664336046F
:104580002F0C3E432D04401BB141994204D202003E
:104590000B0020000021F0BD01D19042F7D3801A1A
:1045A000994101349942F2D3F6E70000000000D0AF
:1045B000FFFFFFFF48404140484018B41B4B5B6879
:1045C000FC46019308BD04DF9F48001018B4174B48
:1045D0001B68FC46019308BD00DFA9480010944603
:1045E000134A926F920809D2624618B40F4BDB68E7
:1045F000FC46019308BD0CDF614B00100C4AF0B57E
:10460000146E556E576F166F6246FFF7EEFF084A3D
:104610001466556657671667F0BD18B4034B9B6860
:10462000FC46019308BD08DF054A00106C3B0020E2
:10463000000000D0FFB550404240504059404B4030
:10464000594000E0FFB5154F4C00640D03D0BC424B
:1046500004D10C0314D80020090D09055C00640D79
:1046600003D0BC4204D11C030AD800221B0D1B0539
:1046700001264B4009D44B4003D58B4200D18242E6
:10468000FFBD9942FCD19042FFBD0B43DB180343B1
:104690001343F5D0C9434918FFBD0000FF070000D0
:1046A00000B5FFF7CFFF01D0002000BD012000BD05
:1046B00000B5FFF7C7FF804100BDC04600B5FFF75A
:1046C000C1FF01D9002000BD012000BD00B5FFF7EA
:1046D000B1FF01D9002000BD012000BD00B5FFF7EA
:1046E000A9FF804100BD012040054A00121804D8EE
:1046F0005A00121801D8002070470120704700208E
:10470000704700000021002805D17047C1174840BC
:10471000401AFAD0C90713B5064B1B6898470CBC62
:10472000441CA2401005120B0349091B090519433B
:10473000114310BD6C3C00201F04000010B54C005C
:10474000620D8023D218DB00D21A5B057E2A10DDB1
:104750009E3A13DACC170903490819435242D14053
:10476000640001341532202A05DAD0400843604342
:1047700010BD002010BD0846604310BDC80FC01812
:10478000013810BD18B4044B5B6AFC46019308BDA8
:1047900024DF114D001000006C3B002070B5132386
:1047A0001C78012C14D0012C14DC022C02DC1F4AD2
:1047B0001F4B9A641F48FFF769FC1F4B186070BDC0
:1047C00099001A481A4A885001331F2BF8D9EAE792
:1047D0000023FAE71948FFF761FC05001848FFF7C6
:1047E0005DFC023803789B007F2B19DD80222900B5
:1047F0000F4800F01BFC022CD7D1124B1A88B523AE
:104800001B029A4209D1104B1A88104B9A4204D1CC
:104810000F4B1A880F4B9A42C7D00020FEF748F979
:104820000D4B0E4A32210E48FEF7A8F865480010DD
:104830006C3B00204C3300006C3C002053440000D3
:104840005346000054380000D838000049460000A4
:104850009C3800005946000058F000100CF1001080
:10486000B8F0001007B56046002800D100BE0188EE
:104870000A0A0230DF2AFAD1C9B2820804D30288B8
:1048800040880004104300E00068024A5050039042
:1048900007BD00006C3B00200FB403BC0CBCF0B59E
:1048A0000124E407634000E0F0B50C0DCF0F661E55
:1048B0003605891B640503D3C943404200D3013147
:1048C000640D03D0661CF60A07D0E41B00207F00AD
:1048D000791C89078912803C24031D0DDF0F6E1E91
:1048E00036059B1B6D0503D3DB43524200D30133D6
:1048F0006D0D03D06E1CF60A07D0ED1B00227F0061
:104900007B1C9B079B12803D2D032F1B661B58D4DD
:10491000A446202E46DA20371400BC401D00BD40BE
:10492000F24033412A4380185941CB0F05D0C94387
:10493000C043002264425041514162464D0D28D18E
:104940000D0D07D100281FD0241940414941013ADB
:104950000D0DF9D0640006D3013000D30131002CD5
:1049600001D140084000013A0BD4941CE40A04D160
:1049700012051144DB071944F0BDD907204B194338
:1049800000E0D9070020F0BD0029DDD1002CDBD1EB
:10499000F0BD0132C6074008CD0728434908002E64
:1049A000E1D0D9E73C2E29DA203E40371400BC4044
:1049B00000D00124F24014431A00BB401C43D3171B
:1049C000ACE7AC46202F08DA20360400B4400D00D6
:1049D000B540F84039412843A5E73C2F0CDA203F89
:1049E00040360400B44000D00124F84004430800DD
:1049F000B1400C43C117EAE710001900002494E706
:104A00000000F07FF0B50C0D661E3605891BE60A26
:104A10006405640D02D0651CED0A04D0002001215C
:104A20000905803C2403A4461C0D671E3F05DB1BC3
:104A3000E70A6405640D02D0651CED0A04D000226B
:104A400001231B05803C24037740644497B484B25F
:104A500096B27443070C7E43150C6F4380B26843D3
:104A6000361802D3012000043F183004350C001919
:104A70007D41844688B29AB250430C0C62431F0CAD
:104A80007C438EB27E43921902D301263604A419C8
:104A90001604170C3618674101BC81B29AB2514313
:104AA000040C62431B0C5C4380B25843121802D3BF
:104AB0000120000424181004130C401863412D1821
:104AC0005E410020474106BC88B293B258430C0CAB
:104AD0006343120C544389B251435B1802D3012142
:104AE0000904641819041A0C091862416D1856411A
:104AF0000020474118BCF902720D1143F0026A0D03
:104B00001043ED020A0D03D16D1940414941013BAB
:104B1000124E9B1B7600B3420ED26D0007D30130BC
:104B2000002671416646354301D1400840001B050F
:104B3000C918E4072144F0BD0BDA013306D1013076
:104B400004D101314F0D01D04908F2E7E1070020FF
:104B5000F0BD013631050020EBE70000FF03000047
:104B6000F0B51C0D671E3F05DB1BE70A6405640DED
:104B700002D0661CF60A04D0002201231B05803CEB
:104B80002403D0252D060026F6432E661E096E66E8
:104B9000CE0FF619B44649004F0D02D07E1CF60A1E
:104BA00003D000200021403F3F033E1BB600B44429
:104BB000013F7F05C91B49082E6F013676089C020C
:104BC000950D25437543ED137543AD1301356D10F8
:104BD000F603761B0CB4CC02450D2C43A2B2B3B243
:104BE0005A43270C7B43350C6F43A4B26C431B190B
:104BF00002D3012424043F191C041D0CA4187D4178
:104C000024196D41009A91B2ACB26143170C7C43F8
:104C10002B0C5F4392B25A43A41802D30122120410
:104C2000BF182204230C52187B41019C6C431B19B2
:104C3000520ED9010A434401A01A81B2B2B25143C3
:104C400003145A43360C734387B27743D617D219ED
:104C500000277E4136049B191704160C7F185E410D
:104C60007316ED18F301002680337541A90F06D1A4
:104C70006400690AE8055B0A184309D22FE00422A0
:104C8000944480337541A90AA8059B0A184326D38A
:104C9000404149412404009A019B0D005543641B87
:104CA0004343E41A95B286B27543170C7E43030C56
:104CB0005F4392B25A43B61802D301221204BF18BE
:104CC0003204330C52197B4152429C41002C02D4D5
:104CD0000022013051414008CA071043490802B080
:104CE0006246D7079210084BD218084B9A4203D25B
:104CF00012058918C919F0BD0020002A01DC39000D
:104D0000F0BD01331905F5E7FD030000FE070000C3
:104D1000002200B5203200F004F8080000BD0000B9
:104D200000220B150AD410B5944600F031F8141483
:104D3000013400DA0021CB17144C20470020002159
:104D400070476244343A0CD40C2A07DA04009140CC
:104D5000904052422032D440214310BDD843D94321
:104D600010BD203207D40C469440524220321141EB
:104D7000D040204310BD0800C917203203D452424E
:104D80002032104110BD1800190010BD434D001015
:104D90000A0DCC0F531E1B05C91A520503D3C94374
:104DA000404200D30131520D03D0531CDB0A07D01F
:104DB000121B00206400611C89078912803A1203CB
:104DC000014BD21A70470000FF03000051434343D8
:104DD000C9188C46110C83B24B4310B4040C6143C8
:104DE00092B280B2504362431C041B0C001910BCE9
:104DF00059411304120CC01851416144704700001E
:104E000048404140484000239C46114B5B6818478E
:104E100000239C460E4B1B6818470E4A936F9B0855
:104E200004D200239C460A4BDB681847F0B5146E89
:104E3000556E576F166FFFF7F4FF064A14665566F6
:104E400057671667F0BD00239C46014B9B681847C7
:104E5000703C0020000000D0C10FC90700D54042BF
:104E6000002817D0F44603B40B4B1B68984706BCC8
:104E700081409E384042803107D20B0607D049005E
:104E8000490AC0051043084360470130F8E7490A62
:104E90008902F5E7704700006C3C0020034BDB6F94
:104EA000FC4618477CDFE14F00100000703C0020FA
:104EB00070B513231D782A48FFF7F0F80400012D80
:104EC00011D0012D09DDA31E1B789B007F2B40DD37
:104ED00080222100234800F0A9F82348FFF7D6F8E4
:104EE000224B186070BD542201001E4800F09EF84D
:104EF0001F4B1A881F4B9A421CD1A7239B011A886B
:104F00001D4B9A4216D11D4B1A881D4B9A4211D146
:104F10001C4B1A8894239B019A420BD11A4B1A8876
:104F20001A4B9A4206D11A4B1A681A4B9A4201D16F
:104F3000152307E01848FDF7BBFD99001748094AFB
:104F4000885001331F2BF8D9144A064B1A62DA61D4
:104F5000B7E7134B134A42211348FDF70FFDC04634
:104F600053460000703C00204C3300006C3C002095
:104F7000EE290000C40F0000C20D0000962B0000B7
:104F8000C0B50000182B0000CC2A000010B50000AE
:104F9000FC2C000051ED876480EB0010AD4F001039
:104FA00020F10010A8F1001054F1001007B5604680
:104FB000002800D100BE01880A0A0230DF2AFAD197
:104FC000C9B2820804D3028840880004104300E07C
:104FD0000068024A5050039007BD0000703C00205A
:104FE000C30FDB0741000A0E07D0FF2A08D00909CA
:104FF000054A891819434007704719000020704777
:105000000249C918FAE70000000000380000F07FEC
:1050100001480421014B184760050020AD400010F5
:10502000014B1B681847000060050020014B5B68BE
:10503000184700006005002010B5030008001100AB
:105040001B68984710BD0000F8B507000D0016005A
:10505000437C002B02D0002400200CE003681100E8
:10506000280098472DE03B7C10E0022115483B6862
:105070009847601C0134B44214DA002CF3DD2B197C
:10508000013B1B780D3B5A425341DBB22A5D0A2A91
:10509000F0D1002BEED1A042E7DA211A28183B68A4
:1050A0009847E2E7B04203DA311A28183B6898477C
:1050B000002E06DDAD19013D2B780D3B5A425341C0
:1050C0003B74F8BDA4F2001070B505000368002B16
:1050D00016D00C4B1C6805E0290004C92000FFF71E
:1050E000B3FFE468002C09D02368002BF9D0064BED
:1050F0001B68002BF0D0A342F3D1EDE700232B6017
:1051000070BDC046042700200827002070B50500A8
:105110000C000B68802B05D021684B1C23606418A1
:10512000257170BD0800FFF7CFFFF5E7F0B583B03C
:1051300007000E000092019328E0A368002B04D022
:10514000310038009847002827DCE468002C06D09E
:10515000134B1D68002DF0D0A542F6D1EDE7009964
:10516000019A104B5B6A9A4209D80E48806A8842BD
:105170000FD29A4201D0012302E0002300E0002375
:10518000002B08D101200021FCF7BEFF064B1C6854
:10519000DCE70123F4E70120404203B0F0BDC04644
:1051A00008270020004005400427002010B582B0E9
:1051B000D0231B0600241C5701A9074808F07CFFD8
:1051C000002806D1019B9C4203D0034808F084FFCD
:1051D000012002B010BDC046740F002010B5024877
:1051E00008F052FF10BDC046740F0020F0B5CE4647
:1051F000474680B583B006000D0090461C00FFF7BF
:10520000D5FF81466B1C05D0002C08D0194F1A4BD6
:105210001C6807E0300003F0A5FC0500F4E7174F19
:10522000F5E7E468002C17D02368002BF9D0144B65
:105230001B68002B01D0A342F3D12A0031002000CB
:10524000B8474346002BECD06B46D91D0A230B70A0
:1052500001222000B847E4E74B46002B07D16B1E24
:105260009D41E8B203B0C0BCB946B046F0BDFFF7FF
:10527000B5FFF4E739500010042700204950001012
:105280000827002010B582B004006B46D81D0470BA
:10529000002300220121FFF7A9FF200002B010BD6A
:1052A00010B5030008001100002B05D1044B1A684B
:1052B0005B68FFF73BFF10BD01204042FBE7C046A3
:1052C000C8E8001010B5030008001400013B012BD2
:1052D00006D8002300222100FFF788FF200010BD20
:1052E00001204042FBE70000094A01E00C331A00AC
:1052F0001368002B08D08342F8D1002907D1C36876
:1053000013600023C36002E0002900D010607047E2
:105310000427002010B5064B1C6801E09847E4689C
:10532000002C03D06368002BF8D1F8E710BDC0460D
:105330000427002070B5050003F014FC04000023CE
:10534000012201002800FFF751FFFFF7E3FF2000D3
:1053500070BD000070B5A2B004000E00FFF726FF7C
:1053600005008422002101A8FFF75AFE3300220025
:1053700001A90848FEF772FE040001A8FFF7A4FE89
:10538000FFF7C8FF002D02D1200022B070BDFFF74B
:1053900025FFF9E70D5100100FB400B583B004A943
:1053A00001C90191FFF7D6FF03B008BC04B018474C
:1053B00010B500F0CFF800F033FA10BD30B583B06F
:1053C00004000025FCF780FE02000B1E16DB1219FC
:1053D0006B41994202D804D1904202D90122524233
:1053E000D317002B10DB012101A8FFF79FFE002837
:1053F00002DB0FD001AB187803B030BD094B0A4A6D
:105400003F210A48FDF7BAFA064B074A3F210748F1
:10541000FDF7B4FA9521064B064A49000648FDF708
:10542000ADFAC046A8E6001078F20010C4E60010FD
:10543000E4E7001090F200102CF20010002903D0D5
:10544000437C002B00D1037441747047F0B583B0E6
:1054500005000E0000240FE06B46D91D0D230B70D4
:105460000020002816D193699B06FCD40B781360AA
:1054700001300131F5E70134B44219DA0D4B1A68F5
:105480002F5D0D4BD31859424B415B000B495B5EBE
:10549000BB42E1D06B46D91D0F7000200028EAD135
:1054A00093699B06FCD40B78136001300131F5E75A
:1054B00003B0F0BD903D00200080FCBF8C3D00207B
:1054C000F0B583B006000F00002004E06B46073300
:1054D0001B7823702800B84215DA0E4B1A689369BE
:1054E0001024210019401C420DD1451C34186B4674
:1054F000D81D0029EAD19369DB06FCD41368037038
:1055000001310130F5E7002801D003B0F0BD0338C8
:10551000FBE7C046903D002070B515001C000B4B0A
:105520001860FDF7C9F9002D06DA002C09DA01210F
:105530000748FFF7D9FE70BD02212800FDF724F9C6
:10554000F3E702212000FDF71FF9F0E7903D00206E
:105550007005002010B5064B1B78064B1B78E12127
:105560000123002249020448FFF7D6FF10BDC046C0
:10557000D4000110D8000110004003407047000023
:10558000014B00221A707047B03D00204B79FF2B71
:105590000CD18B79002B0BD1CB79012B0AD1082AA6
:1055A0000AD98A78054B1A70092000E0002070475C
:1055B0000020FCE70020FAE70020F8E7B03D0020DB
:1055C0000120704770B504000D000348FEF75EFD32
:1055D00003002900200098475542000010B500291B
:1055E00026D1117953791B020B43124909788B425A
:1055F00001D0002010BD5378012B03D0022B10D016
:105600000020F7E79178D3781B021943DB0503D517
:105610004B0A0120984000E000207F231940FFF74B
:10562000D1FF642200210020FDF750FC0120E1E7BA
:105630000120DFE7B03D00200123037000487047E0
:10564000E8F2001010B50B784878000218438A7809
:1056500012041043CB781B0603439622D2009342D8
:1056600000D010BD00210800FFF7ACFF30B583B0BB
:1056700005000C0001A9184808F01EFD002808D1FB
:10568000D0231B061B68019A9A4221D0124808F0C9
:1056900023FD002001F054FE002807D103246442BA
:1056A0000D4808F0F1FC200003B030BD002001F0EF
:1056B00069FE002802D103246442F1E72200290098
:1056C000002001F06BFE041EEAD103246442E7E7E8
:1056D00003246442E7E7C046743D002010B5002172
:1056E000054808F0E9FC002800D110BD01F0C0FB1E
:1056F000014808F0C9FCF8E7743D0020F0B5C64643
:1057000000B582B080460D0001A92E4808F0D4FCF7
:10571000002808D1D0231B061B68019A9A420FD09B
:10572000284808F0D9FC002001F00AFE002847D1E3
:10573000254B0020002118605960224808F0A4FC85
:1057400002B080BCB846F0BD01F092FB002001F031
:1057500039FE002001F0F4FD0028EED0002001F019
:10576000B3FE00281DD0AC42E7DA2E1B002001F06A
:10577000ABFE0200864200DC3200002AE4D0434641
:105780001919002001F084FE060001F071FB0020D1
:1057900001F018FEA419FCF797FC0B4B1860596038
:1057A000E1E7FCF791FC084B1E685F68074A00239D
:1057B00092197B419942C0D8D5D19042D3D9BCE748
:1057C0000024D0E7743D00209810002020A107009D
:1057D00010B50A4B1A78D0231B061B689A4207D1D2
:1057E000074B1878FBF768FCFA208000002110BDF9
:1057F000044B054A32210548FDF7C0F8B33D0020AF
:10580000B13D002000F30010B4F3001028F30010A5
:1058100010B5024B1878FBF74FFC10BDB13D0020CE
:1058200070B584B0D0231B061A782D4B1A702D4BFF
:105830001B7802F08FF82C48FCF776FF0120FBF76D
:10584000F9FEC0B2294C20702949FBF757FC20789B
:105850000121FBF729FC0520FBF73EFC041E0BD0C1
:10586000002224490520FBF773FC01212248FFF7A1
:105870003BFD200004B070BDFCF74EFA0600FCF7BB
:1058800023FC04000D1E1EDB0100FA2292000023FF
:1058900012196B419D4202D804D1914202D90122D2
:1058A0005242D317002B14DB0121029100210191F8
:1058B000124900913000FCF745FA431E9841C4B2EA
:1058C0000028D6D0D1E70E4B0E4A3F210E48FDF7F7
:1058D00055F80B4B0B4A3F210B48FDF74FF8C046DC
:1058E000B33D0020DC000110743D0020B13D0020DC
:1058F000DD5600101158001084050020D15700100B
:10590000A8E600109CF30010C4E6001000487047A1
:1059100040F4001000487047ECF3001010B504008C
:10592000154B1B78002B0ED0002C11D1134B144AB1
:105930005A80012301335B001BB2C0229200134343
:105940000E48038010BD11210B4802F0D7FBEBE796
:10595000052C0ED8A4000B4BE4580023122BE9D8D9
:10596000E25C002AE6D00133590004484252DBB21F
:10597000F4E70020E6E7C046943D0020DC26002046
:105980000904000054F4001002007F201040D209E6
:10599000400080184001014BC018704710270020BC
:1059A00010B582B001AB074A1A80002406E001ABB3
:1059B000185DFFF7E9FF0123C3700134012CF6D90C
:1059C00002B010BD0080FFFF10B5838B3F333F2234
:1059D0009343022915D0124C2268C260D318236069
:1059E0009C0610D10F4C6240634080246401A342A6
:1059F0000FD88906114380231B0619434368196099
:105A000010BD5B00E7E7084B084A54210848FCF743
:105A1000B5FF084B054A56210548FCF7AFFFC046C5
:105A20002C2B0020000010506CF4001090F500109A
:105A30009CF40010FCF40010F8B505000E001400F2
:105A4000FFF7A2FF7F232B40EF0985707A427A414E
:105A500042700022C27086838477012F0DD0DA0055
:105A600012498C4662448260826800211160002BDA
:105A700009D143600E4BC360F8BDDA000D498C4676
:105A800062448260F0E7012F09D0013BDB000A4A43
:105A90009446634443602100FFF796FFECE7013B27
:105AA000DB00064A944663444360F4E784001050E8
:105AB00000011050800010500C00105008001050D1
:105AC00010B5002308E00133DA0000210848115026
:105AD000844662445160DBB20E2BF4D9F02292006E
